{
  "contractName": "OrderManager",
  "abi": [
    {
      "anonymous": false,
      "inputs": [
        {
          "indexed": true,
          "internalType": "address",
          "name": "previousOwner",
          "type": "address"
        },
        {
          "indexed": true,
          "internalType": "address",
          "name": "newOwner",
          "type": "address"
        }
      ],
      "name": "OwnershipTransferred",
      "type": "event"
    },
    {
      "anonymous": false,
      "inputs": [
        {
          "indexed": false,
          "internalType": "uint256",
          "name": "_orderIndex",
          "type": "uint256"
        },
        {
          "indexed": false,
          "internalType": "uint256",
          "name": "_step",
          "type": "uint256"
        },
        {
          "indexed": false,
          "internalType": "address",
          "name": "_itemAddress",
          "type": "address"
        }
      ],
      "name": "SupplyChainStep",
      "type": "event"
    },
    {
      "inputs": [
        {
          "internalType": "uint256",
          "name": "",
          "type": "uint256"
        }
      ],
      "name": "orders",
      "outputs": [
        {
          "internalType": "contract Order",
          "name": "_order",
          "type": "address"
        },
        {
          "internalType": "string",
          "name": "_identifier",
          "type": "string"
        },
        {
          "internalType": "uint256",
          "name": "_orderTotal",
          "type": "uint256"
        },
        {
          "internalType": "enum OrderManager.SupplyChainState",
          "name": "_state",
          "type": "uint8"
        }
      ],
      "stateMutability": "view",
      "type": "function",
      "constant": true
    },
    {
      "inputs": [],
      "name": "owner",
      "outputs": [
        {
          "internalType": "address",
          "name": "",
          "type": "address"
        }
      ],
      "stateMutability": "view",
      "type": "function",
      "constant": true
    },
    {
      "inputs": [],
      "name": "renounceOwnership",
      "outputs": [],
      "stateMutability": "nonpayable",
      "type": "function"
    },
    {
      "inputs": [
        {
          "internalType": "address",
          "name": "newOwner",
          "type": "address"
        }
      ],
      "name": "transferOwnership",
      "outputs": [],
      "stateMutability": "nonpayable",
      "type": "function"
    },
    {
      "inputs": [
        {
          "internalType": "string",
          "name": "_identifier",
          "type": "string"
        },
        {
          "internalType": "uint256",
          "name": "_orderTotal",
          "type": "uint256"
        }
      ],
      "name": "createOrder",
      "outputs": [],
      "stateMutability": "nonpayable",
      "type": "function"
    },
    {
      "inputs": [
        {
          "internalType": "uint256",
          "name": "_orderIndex",
          "type": "uint256"
        }
      ],
      "name": "triggerPayment",
      "outputs": [],
      "stateMutability": "payable",
      "type": "function",
      "payable": true
    },
    {
      "inputs": [
        {
          "internalType": "uint256",
          "name": "_orderIndex",
          "type": "uint256"
        }
      ],
      "name": "triggerDelivery",
      "outputs": [],
      "stateMutability": "nonpayable",
      "type": "function"
    }
  ],
  "bytecode": "0x608060405234801561001057600080fd5b5060006100216100c460201b60201c565b9050806000806101000a81548173ffffffffffffffffffffffffffffffffffffffff021916908373ffffffffffffffffffffffffffffffffffffffff1602179055508073ffffffffffffffffffffffffffffffffffffffff16600073ffffffffffffffffffffffffffffffffffffffff167f8be0079c531659141344cd1fd0a4f28419497f9722a3daafe3b4186f6b6457e060405160405180910390a3506100cc565b600033905090565b611dc5806100db6000396000f3fe6080604052600436106200007a5760003560e01c806397de706f116200005557806397de706f14620000e9578063a85c38ef1462000117578063cd31831e146200015e578063f2fde38b146200018c576200007a565b8063715018a6146200007f578063800fb83f14620000995780638da5cb5b14620000b9575b600080fd5b3480156200008c57600080fd5b5062000097620001ba565b005b620000b76004803603810190620000b1919062000f40565b620002fb565b005b348015620000c657600080fd5b50620000d162000568565b604051620000e091906200109e565b60405180910390f35b348015620000f657600080fd5b506200011560048036038101906200010f919062000ee6565b62000591565b005b3480156200012457600080fd5b506200014360048036038101906200013d919062000f40565b6200081e565b604051620001559493929190620010f8565b60405180910390f35b3480156200016b57600080fd5b506200018a600480360381019062000184919062000f40565b6200090b565b005b3480156200019957600080fd5b50620001b86004803603810190620001b2919062000eba565b62000ba1565b005b620001c462000d54565b73ffffffffffffffffffffffffffffffffffffffff16620001e462000568565b73ffffffffffffffffffffffffffffffffffffffff16146200023d576040517f08c379a00000000000000000000000000000000000000000000000000000000081526004016200023490620011b2565b60405180910390fd5b600073ffffffffffffffffffffffffffffffffffffffff1660008054906101000a900473ffffffffffffffffffffffffffffffffffffffff1673ffffffffffffffffffffffffffffffffffffffff167f8be0079c531659141344cd1fd0a4f28419497f9722a3daafe3b4186f6b6457e060405160405180910390a360008060006101000a81548173ffffffffffffffffffffffffffffffffffffffff021916908373ffffffffffffffffffffffffffffffffffffffff160217905550565b3460016000838152602001908152602001600020600201541462000356576040517f08c379a00000000000000000000000000000000000000000000000000000000081526004016200034d9062001190565b60405180910390fd5b6000600281111562000391577f4e487b7100000000000000000000000000000000000000000000000000000000600052602160045260246000fd5b6001600083815260200190815260200160002060030160009054906101000a900460ff166002811115620003ee577f4e487b7100000000000000000000000000000000000000000000000000000000600052602160045260246000fd5b1462000431576040517f08c379a000000000000000000000000000000000000000000000000000000000815260040162000428906200114c565b60405180910390fd5b600180600083815260200190815260200160002060030160006101000a81548160ff0219169083600281111562000491577f4e487b7100000000000000000000000000000000000000000000000000000000600052602160045260246000fd5b02179055507fa4035636e99f06b7651a604c1019fa4e8779fe68ef27eeb74dff2de348f6199b816001600084815260200190815260200160002060030160009054906101000a900460ff16600281111562000515577f4e487b7100000000000000000000000000000000000000000000000000000000600052602160045260246000fd5b6001600085815260200190815260200160002060000160009054906101000a900473ffffffffffffffffffffffffffffffffffffffff166040516200055d93929190620011d4565b60405180910390a150565b60008060009054906101000a900473ffffffffffffffffffffffffffffffffffffffff16905090565b6200059b62000d54565b73ffffffffffffffffffffffffffffffffffffffff16620005bb62000568565b73ffffffffffffffffffffffffffffffffffffffff161462000614576040517f08c379a00000000000000000000000000000000000000000000000000000000081526004016200060b90620011b2565b60405180910390fd5b60003082600254604051620006299062000d5c565b6200063793929190620010bb565b604051809103906000f08015801562000654573d6000803e3d6000fd5b5090508060016000600254815260200190815260200160002060000160006101000a81548173ffffffffffffffffffffffffffffffffffffffff021916908373ffffffffffffffffffffffffffffffffffffffff160217905550826001600060025481526020019081526020016000206001019080519060200190620006dc92919062000d6a565b508160016000600254815260200190815260200160002060020181905550600060016000600254815260200190815260200160002060030160006101000a81548160ff021916908360028111156200075d577f4e487b7100000000000000000000000000000000000000000000000000000000600052602160045260246000fd5b02179055507fa4035636e99f06b7651a604c1019fa4e8779fe68ef27eeb74dff2de348f6199b60025460016000600254815260200190815260200160002060030160009054906101000a900460ff166002811115620007e5577f4e487b7100000000000000000000000000000000000000000000000000000000600052602160045260246000fd5b83604051620007f793929190620011d4565b60405180910390a1600260008154809291906200081490620013f4565b9190505550505050565b60016020528060005260406000206000915090508060000160009054906101000a900473ffffffffffffffffffffffffffffffffffffffff1690806001018054620008699062001388565b80601f0160208091040260200160405190810160405280929190818152602001828054620008979062001388565b8015620008e85780601f10620008bc57610100808354040283529160200191620008e8565b820191906000526020600020905b815481529060010190602001808311620008ca57829003601f168201915b5050505050908060020154908060030160009054906101000a900460ff16905084565b6200091562000d54565b73ffffffffffffffffffffffffffffffffffffffff166200093562000568565b73ffffffffffffffffffffffffffffffffffffffff16146200098e576040517f08c379a00000000000000000000000000000000000000000000000000000000081526004016200098590620011b2565b60405180910390fd5b60016002811115620009c9577f4e487b7100000000000000000000000000000000000000000000000000000000600052602160045260246000fd5b6001600083815260200190815260200160002060030160009054906101000a900460ff16600281111562000a26577f4e487b7100000000000000000000000000000000000000000000000000000000600052602160045260246000fd5b1462000a69576040517f08c379a000000000000000000000000000000000000000000000000000000000815260040162000a60906200114c565b60405180910390fd5b60026001600083815260200190815260200160002060030160006101000a81548160ff0219169083600281111562000aca577f4e487b7100000000000000000000000000000000000000000000000000000000600052602160045260246000fd5b02179055507fa4035636e99f06b7651a604c1019fa4e8779fe68ef27eeb74dff2de348f6199b816001600084815260200190815260200160002060030160009054906101000a900460ff16600281111562000b4e577f4e487b7100000000000000000000000000000000000000000000000000000000600052602160045260246000fd5b6001600085815260200190815260200160002060000160009054906101000a900473ffffffffffffffffffffffffffffffffffffffff1660405162000b9693929190620011d4565b60405180910390a150565b62000bab62000d54565b73ffffffffffffffffffffffffffffffffffffffff1662000bcb62000568565b73ffffffffffffffffffffffffffffffffffffffff161462000c24576040517f08c379a000000000000000000000000000000000000000000000000000000000815260040162000c1b90620011b2565b60405180910390fd5b600073ffffffffffffffffffffffffffffffffffffffff168173ffffffffffffffffffffffffffffffffffffffff16141562000c97576040517f08c379a000000000000000000000000000000000000000000000000000000000815260040162000c8e906200116e565b60405180910390fd5b8073ffffffffffffffffffffffffffffffffffffffff1660008054906101000a900473ffffffffffffffffffffffffffffffffffffffff1673ffffffffffffffffffffffffffffffffffffffff167f8be0079c531659141344cd1fd0a4f28419497f9722a3daafe3b4186f6b6457e060405160405180910390a3806000806101000a81548173ffffffffffffffffffffffffffffffffffffffff021916908373ffffffffffffffffffffffffffffffffffffffff16021790555050565b600033905090565b61076b806200162583390190565b82805462000d789062001388565b90600052602060002090601f01602090048101928262000d9c576000855562000de8565b82601f1062000db757805160ff191683800117855562000de8565b8280016001018555821562000de8579182015b8281111562000de757825182559160200191906001019062000dca565b5b50905062000df7919062000dfb565b5090565b5b8082111562000e1657600081600090555060010162000dfc565b5090565b600062000e3162000e2b846200123a565b62001211565b90508281526020810184848401111562000e4a57600080fd5b62000e5784828562001343565b509392505050565b60008135905062000e7081620015f0565b92915050565b600082601f83011262000e8857600080fd5b813562000e9a84826020860162000e1a565b91505092915050565b60008135905062000eb4816200160a565b92915050565b60006020828403121562000ecd57600080fd5b600062000edd8482850162000e5f565b91505092915050565b6000806040838503121562000efa57600080fd5b600083013567ffffffffffffffff81111562000f1557600080fd5b62000f238582860162000e76565b925050602062000f368582860162000ea3565b9150509250929050565b60006020828403121562000f5357600080fd5b600062000f638482850162000ea3565b91505092915050565b62000f77816200128c565b82525050565b62000f8881620012df565b82525050565b62000f998162001307565b82525050565b62000faa816200132f565b82525050565b600062000fbd8262001270565b62000fc981856200127b565b935062000fdb81856020860162001352565b62000fe681620014fe565b840191505092915050565b600062001000601d836200127b565b91506200100d826200150f565b602082019050919050565b6000620010276026836200127b565b9150620010348262001538565b604082019050919050565b60006200104e601b836200127b565b91506200105b8262001587565b602082019050919050565b6000620010756020836200127b565b91506200108282620015b0565b602082019050919050565b6200109881620012d5565b82525050565b6000602082019050620010b5600083018462000f6c565b92915050565b6000606082019050620010d2600083018662000f7d565b620010e160208301856200108d565b620010f060408301846200108d565b949350505050565b60006080820190506200110f600083018762000f8e565b818103602083015262001123818662000fb0565b90506200113460408301856200108d565b62001143606083018462000f9f565b95945050505050565b60006020820190508181036000830152620011678162000ff1565b9050919050565b60006020820190508181036000830152620011898162001018565b9050919050565b60006020820190508181036000830152620011ab816200103f565b9050919050565b60006020820190508181036000830152620011cd8162001066565b9050919050565b6000606082019050620011eb60008301866200108d565b620011fa60208301856200108d565b62001209604083018462000f6c565b949350505050565b60006200121d62001230565b90506200122b8282620013be565b919050565b6000604051905090565b600067ffffffffffffffff821115620012585762001257620014cf565b5b6200126382620014fe565b9050602081019050919050565b600081519050919050565b600082825260208201905092915050565b60006200129982620012b5565b9050919050565b6000819050620012b082620015d9565b919050565b600073ffffffffffffffffffffffffffffffffffffffff82169050919050565b6000819050919050565b6000620012ec82620012f3565b9050919050565b60006200130082620012b5565b9050919050565b600062001314826200131b565b9050919050565b60006200132882620012b5565b9050919050565b60006200133c82620012a0565b9050919050565b82818337600083830152505050565b60005b838110156200137257808201518184015260208101905062001355565b8381111562001382576000848401525b50505050565b60006002820490506001821680620013a157607f821691505b60208210811415620013b857620013b7620014a0565b5b50919050565b620013c982620014fe565b810181811067ffffffffffffffff82111715620013eb57620013ea620014cf565b5b80604052505050565b60006200140182620012d5565b91507fffffffffffffffffffffffffffffffffffffffffffffffffffffffffffffffff82141562001437576200143662001442565b5b600182019050919050565b7f4e487b7100000000000000000000000000000000000000000000000000000000600052601160045260246000fd5b7f4e487b7100000000000000000000000000000000000000000000000000000000600052602160045260246000fd5b7f4e487b7100000000000000000000000000000000000000000000000000000000600052602260045260246000fd5b7f4e487b7100000000000000000000000000000000000000000000000000000000600052604160045260246000fd5b6000601f19601f8301169050919050565b7f4f72646572206973206675727468657220696e2074686520636861696e000000600082015250565b7f4f776e61626c653a206e6577206f776e657220697320746865207a65726f206160008201527f6464726573730000000000000000000000000000000000000000000000000000602082015250565b7f4f6e6c792066756c6c207061796d656e74732061636365707465640000000000600082015250565b7f4f776e61626c653a2063616c6c6572206973206e6f7420746865206f776e6572600082015250565b60038110620015ed57620015ec62001471565b5b50565b620015fb816200128c565b81146200160757600080fd5b50565b6200161581620012d5565b81146200162157600080fd5b5056fe608060405234801561001057600080fd5b5060405161076b38038061076b833981810160405281019061003291906100b3565b816000819055508060028190555082600360006101000a81548173ffffffffffffffffffffffffffffffffffffffff021916908373ffffffffffffffffffffffffffffffffffffffff16021790555050505061017e565b60008151905061009881610150565b92915050565b6000815190506100ad81610167565b92915050565b6000806000606084860312156100c857600080fd5b60006100d686828701610089565b93505060206100e78682870161009e565b92505060406100f88682870161009e565b9150509250925092565b600061010d82610126565b9050919050565b600061011f82610102565b9050919050565b600073ffffffffffffffffffffffffffffffffffffffff82169050919050565b6000819050919050565b61015981610114565b811461016457600080fd5b50565b61017081610146565b811461017b57600080fd5b50565b6105de8061018d6000396000f3fe6080604052600436106100385760003560e01c80632986c0e5146102505780633c8da5881461027b57806389794d00146102a657610241565b3661024157600060015414610082576040517f08c379a0000000000000000000000000000000000000000000000000000000008152600401610079906103c3565b60405180910390fd5b34600054146100c6576040517f08c379a00000000000000000000000000000000000000000000000000000000081526004016100bd906103e3565b60405180910390fd5b34600160008282546100d89190610445565b925050819055506000600360009054906101000a900473ffffffffffffffffffffffffffffffffffffffff1673ffffffffffffffffffffffffffffffffffffffff163460025460405160240161012e9190610403565b6040516020818303038152906040527f800fb83f000000000000000000000000000000000000000000000000000000007bffffffffffffffffffffffffffffffffffffffffffffffffffffffff19166020820180517bffffffffffffffffffffffffffffffffffffffffffffffffffffffff83818316178352505050506040516101b8919061038c565b60006040518083038185875af1925050503d80600081146101f5576040519150601f19603f3d011682016040523d82523d6000602084013e6101fa565b606091505b505090508061023e576040517f08c379a0000000000000000000000000000000000000000000000000000000008152600401610235906103a3565b60405180910390fd5b50005b34801561024d57600080fd5b50005b34801561025c57600080fd5b506102656102d1565b6040516102729190610403565b60405180910390f35b34801561028757600080fd5b506102906102d7565b60405161029d9190610403565b60405180910390f35b3480156102b257600080fd5b506102bb6102dd565b6040516102c89190610403565b60405180910390f35b60025481565b60005481565b60015481565b60006102ee8261041e565b6102f88185610429565b93506103088185602086016104a5565b80840191505092915050565b6000610321602983610434565b915061032c82610507565b604082019050919050565b6000610344601683610434565b915061034f82610556565b602082019050919050565b6000610367601a83610434565b91506103728261057f565b602082019050919050565b6103868161049b565b82525050565b600061039882846102e3565b915081905092915050565b600060208201905081810360008301526103bc81610314565b9050919050565b600060208201905081810360008301526103dc81610337565b9050919050565b600060208201905081810360008301526103fc8161035a565b9050919050565b6000602082019050610418600083018461037d565b92915050565b600081519050919050565b600081905092915050565b600082825260208201905092915050565b60006104508261049b565b915061045b8361049b565b9250827fffffffffffffffffffffffffffffffffffffffffffffffffffffffffffffffff038211156104905761048f6104d8565b5b828201905092915050565b6000819050919050565b60005b838110156104c35780820151818401526020810190506104a8565b838111156104d2576000848401525b50505050565b7f4e487b7100000000000000000000000000000000000000000000000000000000600052601160045260246000fd5b7f5472616e73616374696f6e207761736e2774207375636365737366756c2e204360008201527f616e63656c696e672e0000000000000000000000000000000000000000000000602082015250565b7f4f7264657220616c7265616479207061696420666f7200000000000000000000600082015250565b7f4f6e6c792066756c6c207061796d656e747320616c6c6f77656400000000000060008201525056fea2646970667358221220ccd0a5d790e2c6e014ca82b75b3f4a2edb9023396dea19cea3c1e7beb99a1f6e64736f6c63430008040033a2646970667358221220baf98a70ec8ac248e12fbe8f2f2628c28b6f8a1aba032a0a240ce7a50e73e7ee64736f6c63430008040033",
  "immutableReferences": {},
  "source": "pragma solidity ^0.8.3;\nimport \"@openzeppelin/contracts/access/Ownable.sol\";\nimport \"./Order.sol\";\n\n// Ownable comes from OpenZeppelin\ncontract OrderManager is Ownable {\n    enum SupplyChainState {Created, Paid, Delivered}\n    struct S_Order {\n        Order _order;\n        string _identifier;\n        uint256 _orderTotal;\n        OrderManager.SupplyChainState _state;\n    }\n\n    mapping(uint256 => S_Order) public orders;\n    uint256 orderIndex;\n    event SupplyChainStep(\n        uint256 _orderIndex,\n        uint256 _step,\n        address _itemAddress\n    );\n\n    function createOrder(string memory _identifier, uint256 _orderTotal)\n        public\n        onlyOwner\n    {\n        Order order = new Order(this, _orderTotal, orderIndex);\n        orders[orderIndex]._order = order;\n        orders[orderIndex]._identifier = _identifier;\n        orders[orderIndex]._orderTotal = _orderTotal;\n        orders[orderIndex]._state = SupplyChainState.Created;\n        emit SupplyChainStep(\n            orderIndex,\n            uint256(orders[orderIndex]._state),\n            address(order)\n        );\n        orderIndex++;\n    }\n\n    function triggerPayment(uint256 _orderIndex) public payable {\n        require(\n            orders[_orderIndex]._orderTotal == msg.value,\n            \"Only full payments accepted\"\n        );\n        require(\n            orders[_orderIndex]._state == SupplyChainState.Created,\n            \"Order is further in the chain\"\n        );\n\n        orders[_orderIndex]._state = SupplyChainState.Paid;\n        emit SupplyChainStep(\n            _orderIndex,\n            uint256(orders[_orderIndex]._state),\n            address(orders[_orderIndex]._order)\n        );\n    }\n\n    function triggerDelivery(uint256 _orderIndex) public onlyOwner {\n        require(\n            orders[_orderIndex]._state == SupplyChainState.Paid,\n            \"Order is further in the chain\"\n        );\n        orders[_orderIndex]._state = SupplyChainState.Delivered;\n        emit SupplyChainStep(\n            _orderIndex,\n            uint256(orders[_orderIndex]._state),\n            address(orders[_orderIndex]._order)\n        );\n    }\n}\n",
  "sourcePath": "/Users/ryanjones/Projects/Blockchain/supply-chain-example/contracts/OrderManager.sol",
  "compiler": {
    "name": "solc",
    "version": "0.8.4+commit.c7e474f2.Emscripten.clang"
  },
  "schemaVersion": "3.3.4",
  "updatedAt": "2021-05-08T08:01:47.122Z",
  "networkType": "ethereum",
  "devdoc": {
    "kind": "dev",
    "methods": {
      "owner()": {
        "details": "Returns the address of the current owner."
      },
      "renounceOwnership()": {
        "details": "Leaves the contract without owner. It will not be possible to call `onlyOwner` functions anymore. Can only be called by the current owner. NOTE: Renouncing ownership will leave the contract without an owner, thereby removing any functionality that is only available to the owner."
      },
      "transferOwnership(address)": {
        "details": "Transfers ownership of the contract to a new account (`newOwner`). Can only be called by the current owner."
      }
    },
    "version": 1
  },
  "userdoc": {
    "kind": "user",
    "methods": {},
    "version": 1
  }
}